{
  "contractName": "Series",
  "abi": [
    {
      "constant": true,
      "inputs": [],
      "name": "episodeCounter",
      "outputs": [
        {
          "name": "",
          "type": "uint256"
        }
      ],
      "payable": false,
      "stateMutability": "view",
      "type": "function"
    },
    {
      "constant": true,
      "inputs": [],
      "name": "pledgePerEpisode",
      "outputs": [
        {
          "name": "",
          "type": "uint256"
        }
      ],
      "payable": false,
      "stateMutability": "view",
      "type": "function"
    },
    {
      "constant": true,
      "inputs": [
        {
          "name": "",
          "type": "address"
        }
      ],
      "name": "pledges",
      "outputs": [
        {
          "name": "",
          "type": "uint256"
        }
      ],
      "payable": false,
      "stateMutability": "view",
      "type": "function"
    },
    {
      "constant": true,
      "inputs": [],
      "name": "title",
      "outputs": [
        {
          "name": "",
          "type": "string"
        }
      ],
      "payable": false,
      "stateMutability": "view",
      "type": "function"
    },
    {
      "constant": true,
      "inputs": [
        {
          "name": "",
          "type": "uint256"
        }
      ],
      "name": "publishedEpisodes",
      "outputs": [
        {
          "name": "",
          "type": "string"
        }
      ],
      "payable": false,
      "stateMutability": "view",
      "type": "function"
    },
    {
      "constant": false,
      "inputs": [],
      "name": "renounceOwnership",
      "outputs": [],
      "payable": false,
      "stateMutability": "nonpayable",
      "type": "function"
    },
    {
      "constant": true,
      "inputs": [],
      "name": "owner",
      "outputs": [
        {
          "name": "",
          "type": "address"
        }
      ],
      "payable": false,
      "stateMutability": "view",
      "type": "function"
    },
    {
      "constant": true,
      "inputs": [],
      "name": "minimumPublicationPeriod",
      "outputs": [
        {
          "name": "",
          "type": "uint256"
        }
      ],
      "payable": false,
      "stateMutability": "view",
      "type": "function"
    },
    {
      "constant": true,
      "inputs": [],
      "name": "lastPublicationBlock",
      "outputs": [
        {
          "name": "",
          "type": "uint256"
        }
      ],
      "payable": false,
      "stateMutability": "view",
      "type": "function"
    },
    {
      "constant": false,
      "inputs": [
        {
          "name": "_newOwner",
          "type": "address"
        }
      ],
      "name": "transferOwnership",
      "outputs": [],
      "payable": false,
      "stateMutability": "nonpayable",
      "type": "function"
    },
    {
      "inputs": [
        {
          "name": "_title",
          "type": "string"
        },
        {
          "name": "_pledgePerEpisode",
          "type": "uint256"
        },
        {
          "name": "_minimumPublicationPeriod",
          "type": "uint256"
        }
      ],
      "payable": false,
      "stateMutability": "nonpayable",
      "type": "constructor"
    },
    {
      "anonymous": false,
      "inputs": [
        {
          "indexed": false,
          "name": "pledger",
          "type": "address"
        }
      ],
      "name": "NewPledger",
      "type": "event"
    },
    {
      "anonymous": false,
      "inputs": [
        {
          "indexed": true,
          "name": "pledger",
          "type": "address"
        },
        {
          "indexed": false,
          "name": "pledge",
          "type": "uint256"
        },
        {
          "indexed": false,
          "name": "totalPledge",
          "type": "uint256"
        }
      ],
      "name": "NewPledge",
      "type": "event"
    },
    {
      "anonymous": false,
      "inputs": [
        {
          "indexed": false,
          "name": "episodeId",
          "type": "uint256"
        },
        {
          "indexed": false,
          "name": "episodeLink",
          "type": "string"
        },
        {
          "indexed": false,
          "name": "episodePay",
          "type": "uint256"
        }
      ],
      "name": "NewPublication",
      "type": "event"
    },
    {
      "anonymous": false,
      "inputs": [
        {
          "indexed": true,
          "name": "pledger",
          "type": "address"
        },
        {
          "indexed": false,
          "name": "pledge",
          "type": "uint256"
        }
      ],
      "name": "Withdrawal",
      "type": "event"
    },
    {
      "anonymous": false,
      "inputs": [
        {
          "indexed": true,
          "name": "pledger",
          "type": "address"
        },
        {
          "indexed": false,
          "name": "pledge",
          "type": "uint256"
        }
      ],
      "name": "PledgeInsufficient",
      "type": "event"
    },
    {
      "anonymous": false,
      "inputs": [
        {
          "indexed": false,
          "name": "balanceBeforeClose",
          "type": "uint256"
        }
      ],
      "name": "SeriesClosed",
      "type": "event"
    },
    {
      "anonymous": false,
      "inputs": [
        {
          "indexed": true,
          "name": "previousOwner",
          "type": "address"
        }
      ],
      "name": "OwnershipRenounced",
      "type": "event"
    },
    {
      "anonymous": false,
      "inputs": [
        {
          "indexed": true,
          "name": "previousOwner",
          "type": "address"
        },
        {
          "indexed": true,
          "name": "newOwner",
          "type": "address"
        }
      ],
      "name": "OwnershipTransferred",
      "type": "event"
    },
    {
      "constant": false,
      "inputs": [],
      "name": "pledge",
      "outputs": [],
      "payable": true,
      "stateMutability": "payable",
      "type": "function"
    },
    {
      "constant": false,
      "inputs": [
        {
          "name": "episodeLink",
          "type": "string"
        }
      ],
      "name": "publish",
      "outputs": [],
      "payable": false,
      "stateMutability": "nonpayable",
      "type": "function"
    },
    {
      "constant": false,
      "inputs": [],
      "name": "withdraw",
      "outputs": [],
      "payable": false,
      "stateMutability": "nonpayable",
      "type": "function"
    },
    {
      "constant": false,
      "inputs": [],
      "name": "close",
      "outputs": [],
      "payable": false,
      "stateMutability": "nonpayable",
      "type": "function"
    },
    {
      "constant": true,
      "inputs": [],
      "name": "totalPledgers",
      "outputs": [
        {
          "name": "",
          "type": "uint256"
        }
      ],
      "payable": false,
      "stateMutability": "view",
      "type": "function"
    },
    {
      "constant": true,
      "inputs": [],
      "name": "activePledgers",
      "outputs": [
        {
          "name": "",
          "type": "uint256"
        }
      ],
      "payable": false,
      "stateMutability": "view",
      "type": "function"
    },
    {
      "constant": true,
      "inputs": [],
      "name": "nextEpisodePay",
      "outputs": [
        {
          "name": "",
          "type": "uint256"
        }
      ],
      "payable": false,
      "stateMutability": "view",
      "type": "function"
    },
    {
      "constant": true,
      "inputs": [],
      "name": "numberOfBlocksToWaitBeforeNextPublish",
      "outputs": [
        {
          "name": "",
          "type": "uint256"
        }
      ],
      "payable": false,
      "stateMutability": "view",
      "type": "function"
    }
  ],
  "bytecode": "0x608060405234801561001057600080fd5b5060405161107738038061107783398101604090815281516020808401519284015160008054600160a060020a03191633179055919093018051909361005b9160019186019061006b565b5060029190915560035550610106565b828054600181600116156101000203166002900490600052602060002090601f016020900481019282601f106100ac57805160ff19168380011785556100d9565b828001600101855582156100d9579182015b828111156100d95782518255916020019190600101906100be565b506100e59291506100e9565b5090565b61010391905b808211156100e557600081556001016100ef565b90565b610f62806101156000396000f3006080604052600436106100fb5763ffffffff7c01000000000000000000000000000000000000000000000000000000006000350416630a7313ef811461010057806316eab12114610127578063243e280b1461013c578063343576f5146101975780633ccfd60b146101b857806343d726d6146101cd5780634a79d50c146101e25780636884e3ff1461026c578063715018a61461028457806382f69aef1461029957806388ffe867146102ae5780638da5cb5b146102b657806393af6197146102e7578063a1841637146102fc578063cc53a00514610311578063ddd994f314610326578063e650812f1461033b578063f2fde38b14610350575b600080fd5b34801561010c57600080fd5b50610115610371565b60408051918252519081900360200190f35b34801561013357600080fd5b50610115610377565b34801561014857600080fd5b506040805160206004803580820135601f810184900484028501840190955284845261019594369492936024939284019190819084018382808284375094975061037d9650505050505050565b005b3480156101a357600080fd5b50610115600160a060020a03600435166106f3565b3480156101c457600080fd5b50610195610705565b3480156101d957600080fd5b506101956107ca565b3480156101ee57600080fd5b506101f76108d6565b6040805160208082528351818301528351919283929083019185019080838360005b83811015610231578181015183820152602001610219565b50505050905090810190601f16801561025e5780820380516001836020036101000a031916815260200191505b509250505060405180910390f35b34801561027857600080fd5b506101f7600435610963565b34801561029057600080fd5b506101956109cb565b3480156102a557600080fd5b50610115610a37565b610195610a72565b3480156102c257600080fd5b506102cb610d1c565b60408051600160a060020a039092168252519081900360200190f35b3480156102f357600080fd5b50610115610d2b565b34801561030857600080fd5b50610115610d31565b34801561031d57600080fd5b50610115610d38565b34801561033257600080fd5b50610115610d3e565b34801561034757600080fd5b50610115610d74565b34801561035c57600080fd5b50610195600160a060020a0360043516610db9565b60085481565b60025481565b600080548190600160a060020a0316331461039757600080fd5b60065415806103b957506003546006546103b69163ffffffff610dd916565b43115b151561044c57604080517f08c379a000000000000000000000000000000000000000000000000000000000815260206004820152602260248201527f4f776e65722063616e6e6f74207075626c69736820616761696e20736f20736f60448201527f6f6e000000000000000000000000000000000000000000000000000000000000606482015290519081900360840190fd5b4360065560088054600101908190556000908152600760209081526040909120845161047a92860190610e9e565b5060009150600090505b600554811015610609576104ba6005828154811015156104a057fe5b600091825260209091200154600160a060020a0316610dec565b1561060157610509600254600460006005858154811015156104d857fe5b6000918252602080832090910154600160a060020a031683528201929092526040019020549063ffffffff610e0f16565b6004600060058481548110151561051c57fe5b6000918252602080832090910154600160a060020a0316835282019290925260400190205560025461055590839063ffffffff610dd916565b91506105696005828154811015156104a057fe5b151561060157600580548290811061057d57fe5b600091825260208220015460058054600160a060020a03909216927f7e2b6838b54fdea6595626210497d1e1870ea980b514c4e153a462720d6138759260049290869081106105c857fe5b6000918252602080832090910154600160a060020a03168352828101939093526040918201902054815190815290519081900390910190a25b600101610484565b60008054604051600160a060020a039091169184156108fc02918591818181858888f19350505050158015610642573d6000803e3d6000fd5b507fe17858351818836a671102e23b2de870ee725fe15641658a3df082cdf72d65eb60085484846040518084815260200180602001838152602001828103825284818151815260200191508051906020019080838360005b838110156106b257818101518382015260200161069a565b50505050905090810190601f1680156106df5780820380516001836020036101000a031916815260200191505b5094505050505060405180910390a1505050565b60046020526000908152604090205481565b33600090815260046020526040812054908111156107c757336000818152600460205260408082208290555183156108fc0291849190818181858888f19350505050158015610758573d6000803e3d6000fd5b5060408051828152905133917f7fcf532c15f0a6db0bd6d0e038bea71d30d808c7d98cb3bf7268a95bf5081b65919081900360200190a26040805160008152905133917f7e2b6838b54fdea6595626210497d1e1870ea980b514c4e153a462720d613875919081900360200190a25b50565b6000805481908190600160a060020a031633146107e657600080fd5b30319250600091505b600554821015610895576004600060058481548110151561080c57fe5b6000918252602080832090910154600160a060020a03168352820192909252604001812054915081111561088a57600580548390811061084857fe5b6000918252602082200154604051600160a060020a039091169183156108fc02918491818181858888f19350505050158015610888573d6000803e3d6000fd5b505b6001909101906107ef565b6040805184815290517fd7cad0a61abe36130e67c3848573bbe5a55b637a05a5e167119b3078b4a1b9729181900360200190a1600054600160a060020a0316ff5b60018054604080516020600284861615610100026000190190941693909304601f8101849004840282018401909252818152929183018282801561095b5780601f106109305761010080835404028352916020019161095b565b820191906000526020600020905b81548152906001019060200180831161093e57829003601f168201915b505050505081565b60076020908152600091825260409182902080548351601f60026000196101006001861615020190931692909204918201849004840281018401909452808452909183018282801561095b5780601f106109305761010080835404028352916020019161095b565b600054600160a060020a031633146109e257600080fd5b60008054604051600160a060020a03909116917ff8df31144d9c2f0f6b59d69b8b98abd5459d07f2742c4df920b25aae33c6482091a26000805473ffffffffffffffffffffffffffffffffffffffff19169055565b600080805b600554811015610a6c57610a586005828154811015156104a057fe5b15610a64576001909101905b600101610a3c565b50919050565b6002543360009081526004602052604081205490918291610a9a90349063ffffffff610dd916565b1015610b2d57604080517f08c379a000000000000000000000000000000000000000000000000000000000815260206004820152603660248201527f506c65646765206d7573742062652067726561746572207468616e206d696e6960448201527f6d756d20706c656467652070657220657069736f646500000000000000000000606482015290519081900360840190fd5b600054600160a060020a0316331415610bcd57604080517f08c379a000000000000000000000000000000000000000000000000000000000815260206004820152602560248201527f4f776e65722063616e6e6f7420706c65646765206f6e20697473206f776e207360448201527f6572696573000000000000000000000000000000000000000000000000000000606482015290519081900360840190fd5b5060009050805b600554811015610c1b576005805433919083908110610bef57fe5b600091825260209091200154600160a060020a03161415610c135760019150610c1b565b600101610bd4565b811515610ca757600580546001810182556000919091527f036b6384b5eca791c62761152d0c79bb0604c104a5fb6f4eb0703f3154bb3db001805473ffffffffffffffffffffffffffffffffffffffff19163390811790915560408051918252517f8102795e7682958ad5fa65f3e72240f4e0d42936a607179c6dc621e634b493959181900360200190a15b33600090815260046020526040902054610cc7903463ffffffff610dd916565b33600081815260046020908152604091829020849055815134815290810193909352805191927f2be122dad94bcf7fdc595b52e065047256992abc99aea631bf66b14010529dca929081900390910190a25050565b600054600160a060020a031681565b60035481565b6005545b90565b60065481565b600060065460001480610d575750600354600654014310155b15610d6457506000610d35565b4360035460065401039050610d35565b600080805b600554811015610a6c57610d956005828154811015156104a057fe5b15610db157600254610dae90839063ffffffff610dd916565b91505b600101610d79565b600054600160a060020a03163314610dd057600080fd5b6107c781610e21565b81810182811015610de657fe5b92915050565b600254600160a060020a0382166000908152600460205260409020541015919050565b600082821115610e1b57fe5b50900390565b600160a060020a0381161515610e3657600080fd5b60008054604051600160a060020a03808516939216917f8be0079c531659141344cd1fd0a4f28419497f9722a3daafe3b4186f6b6457e091a36000805473ffffffffffffffffffffffffffffffffffffffff1916600160a060020a0392909216919091179055565b828054600181600116156101000203166002900490600052602060002090601f016020900481019282601f10610edf57805160ff1916838001178555610f0c565b82800160010185558215610f0c579182015b82811115610f0c578251825591602001919060010190610ef1565b50610f18929150610f1c565b5090565b610d3591905b80821115610f185760008155600101610f225600a165627a7a7230582046473455a73c1a09edff8863c77b60308f61d4a34a2f63ccddf05886dd77a0aa0029",
  "source": "pragma solidity ^0.4.22;\n\nimport 'openzeppelin-solidity/contracts/ownership/Ownable.sol';\nimport 'openzeppelin-solidity/contracts/math/SafeMath.sol';\n\ncontract Series is Ownable {\n    using SafeMath for uint;\n\n    //title of the series\n    string public title;\n    //amount that the owner will receive from each pledger for each episode\n    uint public pledgePerEpisode;\n    //periodicity of episodes, in number of blocks\n    //to limit the possibility of owner to drain pledgers' accounts by publishing multiple episodes quickly\n    uint public minimumPublicationPeriod;\n\n    //to keep track of how much each publisher pledged, knowing that this pledge will decrease each time a new episode is published, or when a pledger withdraws everything from his account\n    mapping(address => uint) public pledges;\n    //to keep a list of all the pledgers into the series\n    address[] pledgers;\n    //to keep track of the last time an episode was published, and limit the frequency of publications\n    uint public lastPublicationBlock;\n    //to keep track of all published episodes\n    mapping(uint => string) public publishedEpisodes;\n    uint public episodeCounter;\n\n    //events\n    /*\n    * Emitted when a new pledger joins the series\n    * @param pledger Address of the new pledger\n    */\n    event NewPledger(address pledger);\n    /*\n    * Emitted when a pledger pledges some amount, whether he is a new pledger or a previous one just topping up his account\n    * @param pledger Address of the pledger\n    * @param pledge Amount pledged this time\n    * @param totalPledge Balance of this pledger's account including what he just pledged\n    */\n    event NewPledge(address indexed pledger, uint pledge, uint totalPledge);\n    /*\n    * Emitted when the owner published a new episode\n    * @param episodeHash Hash of the published episode\n    * @param episodePay How much the owner received for this episode\n    */\n    event NewPublication(uint episodeId, string episodeLink, uint episodePay);\n    /*\n    * Emitted when a pledger withdraws all his pledge from his account\n    * @param pledger Address of the withdrawing pledger\n    * @param pledge Amount that was sent back to the pledger\n    */\n    event Withdrawal(address indexed pledger, uint pledge);\n    /*\n    * Emitted when a pledge goes lower than pledgePerEpisode, that can be used to notify the pledger that he should top up his account before next episode is published\n    * @param pledger Address of the pledger\n    * @param pledge Current balance of the pledger\n    */\n    event PledgeInsufficient(address indexed pledger, uint pledge);\n    /*\n    * Emitted when the show is closed by the owner\n    * @param balanceBeforeClose Balance of the contract at the moment of closing\n    */\n    event SeriesClosed(uint balanceBeforeClose);\n\n    /*\n    * Configures the series parameters\n    * @param title Title of the series\n    * @param pledgePerEpisode Amount the owner will receive for each episode from each pledger\n    * @param minimumPublicationPeriod Number of blocks the owner will have to wait between 2 publications\n    */\n    constructor(string _title, uint _pledgePerEpisode, uint _minimumPublicationPeriod) public {\n        title = _title;\n        pledgePerEpisode = _pledgePerEpisode;\n        minimumPublicationPeriod = _minimumPublicationPeriod;\n    }\n\n    /**\n    * TRANSACTIONAL FUNCTIONS\n    */\n\n    /*\n    * Lets someone increase their pledge.\n    * The first time you pledge, you must pledge at least the minimum pledge per episode.\n    * Then for every new pledge, the amount you already pledged plus the new amount must be at least the minimum pledge per episode\n    * This function is payable so the pledge must be transmitted with msg.value\n    * The owner cannot pledge on its own series.\n    */\n    function pledge() public payable {\n        require(msg.value.add(pledges[msg.sender]) >= pledgePerEpisode, \"Pledge must be greater than minimum pledge per episode\");\n        require(msg.sender != owner, \"Owner cannot pledge on its own series\");\n        bool oldPledger = false;\n        for (uint i = 0; i < pledgers.length; i++) {\n            if (pledgers[i] == msg.sender) {\n                oldPledger = true;\n                break;\n            }\n        }\n        if (!oldPledger) {\n            pledgers.push(msg.sender);\n            emit NewPledger(msg.sender);\n        }\n        pledges[msg.sender] = pledges[msg.sender].add(msg.value);\n        emit NewPledge(msg.sender, msg.value, pledges[msg.sender]);\n    }\n\n    /*\n    * This function can only be called by the owner.\n    * And it can only be called if at least minimumPublicationPeriod blocks have passed since lastPublicationBlock\n    * If those prerequisites are met, then the owner receives pledgePerEpisode times number of pledgers whose pledge is still greater than pledgePerEpisode\n    * @param episodeLink Link to download the episode\n    */\n    function publish(string episodeLink) public onlyOwner {\n        require(lastPublicationBlock == 0 || block.number > lastPublicationBlock.add(minimumPublicationPeriod), \"Owner cannot publish again so soon\");\n\n        lastPublicationBlock = block.number;\n        episodeCounter++;\n        publishedEpisodes[episodeCounter] = episodeLink;\n\n        //update pledges\n        uint episodePay = 0;\n        for (uint i = 0; i < pledgers.length; i++) {\n            if (isActive(pledgers[i])) {\n                pledges[pledgers[i]] = pledges[pledgers[i]].sub(pledgePerEpisode);\n                episodePay = episodePay.add(pledgePerEpisode);\n                if (!isActive(pledgers[i])) {\n                    emit PledgeInsufficient(pledgers[i], pledges[pledgers[i]]);\n                }\n            }\n        }\n\n        //pay the owner\n        owner.transfer(episodePay);\n        emit NewPublication(episodeCounter, episodeLink, episodePay);\n    }\n\n    /*\n    * Let a pledger withdraw his entire pledge from his account\n    */\n    function withdraw() public {\n        uint amount = pledges[msg.sender];\n        if (amount > 0) {\n            pledges[msg.sender] = 0;\n            msg.sender.transfer(amount);\n            emit Withdrawal(msg.sender, amount);\n            emit PledgeInsufficient(msg.sender, 0);\n        }\n    }\n\n    /*\n    * Give their money back to all pledgers before killing the contract\n    */\n    function close() public onlyOwner {\n        uint contractBalance = address(this).balance;\n        for (uint i = 0; i < pledgers.length; i++) {\n            uint amount = pledges[pledgers[i]];\n            if (amount > 0) {\n                pledgers[i].transfer(amount);\n            }\n        }\n        emit SeriesClosed(contractBalance);\n        selfdestruct(owner);\n    }\n\n    /**\n    * VIEW FUNCTIONS\n    */\n\n    /*\n    * Total number of pledgers, whether they are still active or not,\n    * that is the number of accounts that have pledged at some point\n    */\n    function totalPledgers() public view returns (uint) {\n        return pledgers.length;\n    }\n\n    /*\n    * Number of active pledgers, that is number of pledgers whose pledge is still\n    * greater than minimum pledge per episode\n    */\n    function activePledgers() public view returns (uint) {\n        uint active = 0;\n        for (uint i = 0; i < pledgers.length; i++) {\n            if (isActive(pledgers[i])) {\n                active++;\n            }\n        }\n        return active;\n    }\n\n    /*\n    * Calculate how much the owner will get paid for next episode\n    */\n    function nextEpisodePay() public view returns (uint) {\n        uint episodePay = 0;\n        for (uint i = 0; i < pledgers.length; i++) {\n            if (isActive(pledgers[i])) {\n                episodePay = episodePay.add(pledgePerEpisode);\n            }\n        }\n\n        return episodePay;\n    }\n\n    function isActive(address pledger) internal view returns (bool) {\n        return pledges[pledger] >= pledgePerEpisode;\n    }\n\n    function numberOfBlocksToWaitBeforeNextPublish() public view returns (uint) {\n        if(lastPublicationBlock == 0 || block.number >= lastPublicationBlock + minimumPublicationPeriod) {\n            return 0;\n        } else {\n            return lastPublicationBlock + minimumPublicationPeriod - block.number;\n        }\n    }\n}\n",
  "sourcePath": "/Users/sarbogast/dev/cryptoseries-react/contracts/Series.sol",
  "compiler": {
    "name": "solc",
    "version": "0.4.24+commit.e67f0147.Emscripten.clang"
  },
  "schemaVersion": "2.0.1",
  "updatedAt": "2018-08-28T02:13:53.971Z"
}